:020000040000FA
:02000000712865
:040002000034003492
:08000800A3000308A4000B1083
:100010000614861406158615AD20061086100611E6
:100020008611AD200614861406158615AD2006101F
:10003000861006118611AD20061486140615861545
:10004000AD200610861006118611AD200614861408
:1000500006158615AD200610861006118611AD20F6
:100060000614861406158615AD2006108610061196
:100070008611AD200614861406158615AD200610CF
:10008000861006118611AD200614861406158615F5
:10009000AD200610861006118611AD2006148614B8
:1000A00006158615AD200610861006118611AD20A6
:1000B0000614861406158615AD2006108610061146
:1000C0008611AD200614861406158615AD2006107F
:1000D000861006118611AD202408830023087A2893
:1000E00009008316F03086000117811783128B15E3
:1000F0008B177A280610861006118611AD2006107F
:10010000861006118615AD2006108610061586117C
:10011000AD200610861006158615AD200610861433
:1001200006118611AD200610861406118615AD2025
:100130000610861406158611AD20061086140615C5
:100140008615AD200614861006118611AD20061402
:10015000861006118615AD207A280630A2001830C8
:10016000A100A730A000A00BB328A10BB328A20BBD
:06017000B32800000800A6
:02400E00F13F80
:00000001FF
