:020000040000FA
:020000003328A3
:040002000034003492
:0800080005280B108F00030E08
:1000100090008B10861742208613422086174220BC
:1000200086134220861742208613422086174220DC
:1000300086134220861742208613422086174220CC
:1000400086134220861742208613422086174220BC
:10005000861342208617422086134220100E83000A
:100060008F0E0F0E090083160130860081170117CD
:1000700083120B168B1786133D2886175020861384
:1000800050203D2806308C0018308D00A7308E009F
:100090008E0B48288D0B48288C0B48280000080040
:1000A00001308C0018308D00A7308E008E0B562842
:0C00B0008D0B56288C0B56280000080011
:02400E00F13F80
:00000001FF
